:020000040000FA
:100000008316031386018701880183120313860177
:100010008701880183160313D73081008312FF30D4
:100020008600003087008800A501A90125201E2038
:100030002B2029083C3C0319362016282908860065
:10004000250887002F08880008000B11F030810078
:100050000B1D282808002908013EA9002508A51D18
:1000600033282518063E013EA5000800A901A50178
:100070003E202F08603C0319AF0108002F08AF1D78
:0E00800043282F18063E013EAF00080008007E
:00000001FF
