:020000040000FA
:1000000083160313860187018801051683120313E3
:10001000860187018801850183160313F73081006B
:100020008312FF308600003087008800A501A901F7
:10003000272020202C2029083C3C03193720182891
:1000400029088600250887002F0888000800C83086
:1000500081000B1D292808002908013EA900250858
:10006000A51D34282518063E013EA5000800A9015B
:10007000A5013F202F08603C0319AF0108002F089D
:10008000AF1D44282F18063E013EAF0008000800AF
:00000001FF
